:020000040800F2
:1000000000000320450E0008CD0D0008D30D0008A8
:10001000D90D0008DF0D0008E50D00080000000004
:10002000000000000000000000000000EB0D0008D0
:10003000F90D000800000000070E0008150E00086A
:10004000950E0008950E0008950E0008950E000804
:10005000950E0008950E0008950E0008950E0008F4
:10006000950E0008950E0008950E0008950E0008E4
:10007000950E0008950E0008950E0008950E0008D4
:10008000950E0008950E0008950E0008950E0008C4
:10009000950E0008950E0008950E0008950E0008B4
:1000A000950E0008950E0008950E0008950E0008A4
:1000B000950E0008950E0008950E0008950E000894
:1000C000950E0008950E0008950E0008950E000884
:1000D000950E0008950E0008950E0008950E000874
:1000E000950E0008950E0008950E0008950E000864
:1000F000950E0008950E0008950E0008950E000854
:10010000950E0008950E0008950E0008950E000843
:10011000950E0008950E0008950E0008950E000833
:10012000950E0008950E0008950E0008950E000823
:10013000950E0008950E0008950E0008950E000813
:10014000950E0008950E0008950E0008950E000803
:10015000950E0008950E0008950E0008950E0008F3
:10016000950E0008950E0008950E0008950E0008E3
:10017000950E0008950E0008950E0008000000007E
:10018000950E0008950E0008950E0008950E0008C3
:10019000950E0008950E0008950E0008950E0008B3
:0C01A000950E0008950E0008950E000852
:1001AC0010B5054C237833B9044B13B10448AFF3A5
:1001BC0000800123237010BD0C0000200000000003
:1001CC00683D000808B5034B1BB103490348AFF366
:1001DC00008008BD0000000010000020683D0008F1
:1001EC0053B94AB9002908BF00281CBF4FF0FF3192
:1001FC004FF0FF3000F074B9ADF1080C6DE904CE8E
:10020C0000F006F8DDF804E0DDE9022304B07047E5
:10021C002DE9F047089D04468E46002B4DD18A42AD
:10022C00944669D9B2FA82F252B101FA02F3C2F1E0
:10023C00200120FA01F10CFA02FC41EA030E944071
:10024C004FEA1C48210CBEFBF8F61FFA8CF708FB92
:10025C0016E341EA034306FB07F199420AD91CEB6A
:10026C00030306F1FF3080F01F81994240F21C819C
:10027C00023E63445B1AA4B2B3FBF8F008FB1033E4
:10028C0044EA034400FB07F7A7420AD91CEB040419
:10029C0000F1FF3380F00A81A74240F207816444E9
:1002AC00023840EA0640E41B00261DB1D44000236E
:1002BC00C5E900433146BDE8F0878B4209D9002DD2
:1002CC0000F0EF800026C5E9000130463146BDE85C
:1002DC00F087B3FA83F6002E4AD18B4202D38242C6
:1002EC0000F2F980841A61EB030301209E46002D75
:1002FC00E0D0C5E9004EDDE702B9FFDEB2FA82F2CA
:10030C00002A40F09280A1EB0C014FEA1C471FFA27
:10031C008CFE0126200CB1FBF7F307FB131140EA0E
:10032C0001410EFB03F0884208D91CEB010103F1DB
:10033C00FF3802D2884200F2CB804346091AA4B29D
:10034C00B1FBF7F007FB101144EA01440EFB00FE71
:10035C00A64508D91CEB040400F1FF3102D2A645D6
:10036C0000F2BB800846A4EB0E0440EA03409CE775
:10037C00C6F12007B34022FA07FC4CEA030C20FA22
:10038C0007F401FA06F31C43F9404FEA1C4900FA42
:10039C0006F3B1FBF9F8200C1FFA8CFE09FB1811BF
:1003AC0040EA014108FB0EF0884202FA06F20BD932
:1003BC001CEB010108F1FF3A80F08880884240F282
:1003CC008580A8F102086144091AA4B2B1FBF9F0C6
:1003DC0009FB101144EA014100FB0EFE8E4508D9C1
:1003EC001CEB010100F1FF346CD28E456AD9023846
:1003FC00614440EA0840A0FB0294A1EB0E01A1422B
:10040C00C846A64656D353D05DB1B3EB080261EB98
:10041C000E0101FA07F722FA06F3F1401F43C5E972
:10042C00007100263146BDE8F087C2F12003D840A8
:10043C000CFA02FC21FA03F3914001434FEA1C47EA
:10044C001FFA8CFEB3FBF7F007FB10360B0C43EADC
:10045C00064300FB0EF69E4204FA02F408D91CEB8C
:10046C00030300F1FF382FD29E422DD9023863448A
:10047C009B1B89B2B3FBF7F607FB163341EA03412A
:10048C0006FB0EF38B4208D91CEB010106F1FF3879
:10049C0016D28B4214D9023E6144C91A46EA004670
:1004AC0038E72E46284605E70646E3E61846F8E602
:1004BC004B45A9D2B9EB020864EB0C0E0138A3E74B
:1004CC004646EAE7204694E74046D1E7D0467BE72C
:1004DC00023B614432E7304609E76444023842E7A4
:1004EC00704700BF80B582B000AF0023FB714FF4A2
:1004FC00FA720021144803F029FC4FF4FA7301221C
:10050C001149124802F077FD0F4B1B78FB71FB79F8
:10051C009AB24FF4FA730E490C4802F06CFD0A4B78
:10052C005B78562B02D0572B05D008E01021042005
:10053C0000F010F803E0044800F048F800BF00BFDA
:10054C000837BD4680BD00BF2800002044040020B1
:10055C002900002080B58AB000AF03460A46FB7123
:10056C001346BB7101224FF48041174801F030FE55
:10057C00BB79172B01D9012322E000233B61FB79C6
:10058C00BB61BB79C3F11803FB6101237B610223BF
:10059C003B6201F0A7F907F10C0207F110031146B9
:1005AC00184601F011FB034687F8273001F0BCF91F
:1005BC0000224FF48041044801F00AFE97F82730DE
:1005CC0018462837BD4680BD0004024080B584B073
:1005DC0000AF78607B689B79FB737B68D3F8023043
:1005EC00BB6001220121094801F0F2FD7B68073351
:1005FC00FA7BB968184600F00BF800220121034879
:10060C0001F0E6FD00BF1037BD4680BD000402407E
:10061C00B0B586B000AFF860B9607A600023FB75A6
:10062C0001F060F900233B6114E0BA683B69D11812
:10063C00FA683B6913441B78DBB200221C46154652
:10064C0022462B46002001F0F9F80346FB753B6966
:10065C0001333B613A697B689A42E6D301F064F955
:10066C00FB7D18461837BD46B0BD000080B584B080
:10067C0000AF104B1B68FB60FB68BB6002F076FBA5
:10068C0000F026FC0C4B00221A600B4B00225A6027
:10069C00094B00229A60094B1B687B607B683B60AE
:1006AC003B6883F3088800BFBB68984700BF1037CE
:1006BC00BD4680BD0400010810E000E00000010808
:1006CC0080B582B000AF00F0E1FB00F025F800F03F
:1006DC0033F900F08BF800F0D7F800F0FFF80023A6
:1006EC007B6000233B607B683B604FF40051094802
:1006FC0001F056FD03467B607A683B689A4205D050
:10070C007B68012B02D1FFF7B1FF01E0FFF7EAFE96
:10071C00E9E700BF0008024080B594B000AF07F1D4
:10072C00200330220021184603F010FB07F10C03C4
:10073C0000221A605A609A60DA601A610023BB606A
:10074C00284B1B6C274A43F080531364254B1B6CBE
:10075C0003F08053BB60BB6800237B60224B1B689B
:10076C00214A43F4404313601F4B1B6803F440437E
:10077C007B607B6801233B624FF4A0237B620223E6
:10078C00BB634FF48003FB6304233B64A8237B64AB
:10079C000223BB640723FB6407F12003184601F016
:1007AC004DFE0346002B01D000F074F90F23FB60C3
:1007BC0002233B6100237B614FF4A053BB614FF4D8
:1007CC008053FB6107F10C030521184602F0AEF8CB
:1007DC000346002B01D000F05DF900BF5037BD4639
:1007EC0080BD00BF003802400070004080B500AFF3
:1007FC001F4B204A1A60204B00221A701E4B80227D
:10080C005A701D4BE1229A701B4B0022DA701A4B66
:10081C0000221A71184B00225A71154B164A5A6055
:10082C00134B4FF400029A60114B144ADA60104BD0
:10083C00134A1A610E4B40F2F4525A610C4800F004
:10084C00D5FC0346002B01D000F024F938220021FE
:10085C000C4803F07BFA0B4B21221A60094B4FF426
:10086C0040025A61074B00221A6100BF80BD00BFD5
:10087C00940300200080024094090020F402002020
:10088C00540200201C02002080B500AF114B124A0C
:10089C001A60104B4FF4E1325A600E4B00229A60F2
:1008AC000C4B0022DA600B4B00221A61094B0C2214
:1008BC005A61084B00229A61064B0022DA61054806
:1008CC0002F04CFB0346002B01D000F0E3F800BF14
:1008DC0080BD00BF440400200048004080B500AF3C
:1008EC00144B4FF0A0421A60124B04225A60114B69
:1008FC000222DA600F4B00221A610E4B02229A611F
:10090C000C4B0122DA610B4B00221A62094B0022BC
:10091C005A62084B0122DA62064B00221A63054820
:10092C0001F06FFC0346002B01D000F0B3F800BFC0
:10093C0080BD00BF8804002080B58CB000AF07F1EB
:10094C001C0300221A605A609A60DA601A61002354
:10095C00BB614C4B1B6B4B4A43F004031363494B79
:10096C001B6B03F00403BB61BB6900237B61454B2C
:10097C001B6B444A43F080031363424B1B6B03F025
:10098C0080037B617B6900233B613E4B1B6B3D4AC3
:10099C0043F0010313633B4B1B6B03F001033B61FF
:1009AC003B690023FB60374B1B6B364A43F0020359
:1009BC001363344B1B6B03F00203FB60FB680023D7
:1009CC00BB60304B1B6B2F4A43F0080313632D4B5A
:1009DC001B6B03F00803BB60BB6800237B60294BD7
:1009EC001B6B284A43F040031363264B1B6B03F02D
:1009FC0040037B607B68002244F28101224801F0B5
:100A0C00E7FB00224021214801F0E2FB4FF40053A8
:100A1C00FB614FF488133B6200237B6207F11C03DC
:100A2C0019461B4801F010FA44F28103FB610123C3
:100A3C003B6200237B620023BB6207F11C03194657
:100A4C00114801F001FA4023FB6101233B620023B2
:100A5C007B620023BB6207F11C0319460B4801F0B3
:100A6C00F3F98023FB6100233B6200237B6207F1D7
:100A7C001C031946054801F0E7F900BF3037BD46A5
:100A8C0080BD00BF00380240000402400018024044
:100A9C000008024080B400AF72B600BFFEE7000051
:100AAC0080B483B000AF00237B60104B5B6C0F4AAB
:100ABC0043F4804353640D4B5B6C03F480437B60C5
:100ACC007B6800233B60094B1B6C084A43F0805346
:100ADC001364064B1B6C03F080533B603B6800BFF8
:100AEC000C37BD465DF8047B704700BF00380240F0
:100AFC0080B58EB000AF786007F1240300221A6035
:100B0C005A609A60DA601A617B681B68554A934296
:100B1C0040F0A48000233B62534B1B6B524A43F0C2
:100B2C0000731363504B1B6B03F000733B623B6A07
:100B3C000023FB614C4B1B6B4B4A43F080631363EC
:100B4C00494B1B6B03F08063FB61FB690023BB61AA
:100B5C00454B1B6B444A43F000631363424B1B6BC6
:100B6C0003F00063BB61BB6900237B613E4B1B6BD5
:100B7C003D4A43F0040313633B4B1B6B03F004032C
:100B8C007B617B6900233B61374B1B6B364A43F01F
:100B9C0001031363344B1B6B03F001033B613B6993
:100BAC000023FB60304B1B6B2F4A43F00203136393
:100BBC002D4B1B6B03F00203FB60FB680023BB6037
:100BCC00294B1B6B284A43F040031363264B1B6BCA
:100BDC0003F04003BB60BB6832237B620223BB6221
:100BEC000023FB6203233B630B237B6307F124038A
:100BFC0019461E4801F028F986237B620223BB624A
:100C0C000023FB6203233B630B237B6307F1240369
:100C1C001946174801F018F94FF400537B62022370
:100C2C00BB620023FB6203233B630B237B6307F153
:100C3C00240319460F4801F007F94FF420537B6247
:100C4C000223BB620023FB6203233B630B237B6306
:100C5C0007F124031946084801F0F6F800BF3837AD
:100C6C00BD4680BD008002400038024000080240B2
:100C7C0000000240000402400018024080B58AB017
:100C8C0000AF786007F1140300221A605A609A6072
:100C9C00DA601A617B681B68194A93422CD10023D5
:100CAC003B61184B1B6C174A43F480231364154BA0
:100CBC001B6C03F480233B613B690023FB60114BED
:100CCC001B6B104A43F0080313630E4B1B6B03F0B2
:100CDC000803FB60FB684FF440737B610223BB612C
:100CEC000023FB6103233B6207237B6207F11403A0
:100CFC001946054801F0A8F800BF2837BD4680BD4D
:100D0C000048004000380240000C024080B58AB018
:100D1C0000AF786007F1140300221A605A609A60E1
:100D2C00DA601A617B681B68B3F1A04F3FD10023D6
:100D3C003B61214B1B6B204A43F0010313631E4B99
:100D4C001B6B03F001033B613B694FF4E8537B6180
:100D5C000223BB610023FB6103233B620A237B62FA
:100D6C0007F114031946154801F06EF84FF400739F
:100D7C007B610023BB610023FB6107F1140319465F
:100D8C000E4801F061F80C4B5B6B0B4A43F080038F
:100D9C0053630023FB60084B5B6C074A43F48043AE
:100DAC005364054B5B6C03F48043FB60FB6800BF32
:100DBC002837BD4680BD00BF00380240000002400D
:100DCC0080B400AFFEE780B400AFFEE780B400AFA4
:100DDC00FEE780B400AFFEE780B400AFFEE780B45E
:100DEC0000AF00BFBD465DF8047B704780B400AF18
:100DFC0000BFBD465DF8047B704780B400AF00BFF8
:100E0C00BD465DF8047B704780B500AF00F0C4F8B8
:100E1C0000BF80BD80B400AF064BD3F88830054AC4
:100E2C0043F47003C2F8883000BFBD465DF8047B04
:100E3C00704700BF00ED00E0DFF834D00D480E49DC
:100E4C000E4A002302E0D458C4500433C4188C4218
:100E5C00F9D30B4A0B4C002301E013600432A2427D
:100E6C00FBD3FFF7D7FF02F04DFFFFF729FC7047CC
:100E7C0000000320000000200C000020A83D00080A
:100E8C000C000020C0090020FEE7000080B500AF78
:100E9C000E4B1B680D4A43F4007313600B4B1B681D
:100EAC000A4A43F480631360084B1B68074A43F4F7
:100EBC0080731360032000F065F9002000F03CF80B
:100ECC00FFF7EEFD0023184680BD00BF003C02403A
:100EDC0080B500AF134B4FF0FF321A62114B00225A
:100EEC001A62104B4FF0FF325A620E4B00225A62BC
:100EFC000C4B4FF0FF321A610A4B00221A61094B5E
:100F0C004FF0FF325A61074B00225A61054B4FF0EC
:100F1C00FF329A61034B00229A6100F005F800231E
:100F2C00184680BD0038024080B400AF00BFBD46FB
:100F3C005DF8047B7047000080B582B000AF78602C
:100F4C00124B1A68124B1B7819464FF47A73B3FB89
:100F5C00F1F3B2FBF3F3184600F03BF90346002B18
:100F6C0001D001230EE07B680F2B0AD80022796890
:100F7C004FF0FF3000F011F9064A7B681360002334
:100F8C0000E0012318460837BD4680BD0000002054
:100F9C00080000200400002080B400AF064B1B7832
:100FAC001A46064B1B681344044A136000BFBD4627
:100FBC005DF8047B704700BF080000209C090020EE
:100FCC0080B400AF034B1B681846BD465DF8047B2C
:100FDC00704700BF9C09002080B584B000AF7860DA
:100FEC00FFF7EEFFB8607B68FB60FB68B3F1FF3F77
:100FFC0005D00A4B1B781A46FB681344FB6000BFF4
:10100C00FFF7DEFF0246BB68D31AFA689A42F7D89C
:10101C0000BF00BF1037BD4680BD00BF08000020D8
:10102C0080B485B000AF78607B6803F00703FB6089
:10103C000C4BDB68BB60BA684FF6FF031340BB6018
:10104C00FB681A02BB68134343F0BF6343F40033DD
:10105C00BB60044ABB68D36000BF1437BD465DF863
:10106C00047B704700ED00E080B400AF044BDB68FC
:10107C001B0A03F007031846BD465DF8047B704756
:10108C0000ED00E080B483B000AF03463960FB7123
:10109C0097F90730002B0ADB3B68DAB20C4997F959
:1010AC0007301201D2B20B4483F800230AE03B68EC
:1010BC00DAB20849FB7903F00F03043B1201D2B2F8
:1010CC000B441A7600BF0C37BD465DF8047B7047A5
:1010DC0000E100E000ED00E080B489B000AFF86002
:1010EC00B9607A60FB6803F00703FB61FB69C3F12D
:1010FC000703042B28BF0423BB61FB690433062BB5
:10110C0002D9FB69033B00E000237B614FF0FF3207
:10111C00BB6902FA03F3DA43BB681A407B699A4055
:10112C004FF0FF317B6901FA03F3D9437B680B4025
:10113C00134318462437BD465DF8047B7047000006
:10114C0080B582B000AF78607B68013BB3F1807FE3
:10115C0001D301230FE00A4A7B68013B53600F2146
:10116C004FF0FF30FFF78EFF054B00229A60044BC7
:10117C0007221A60002318460837BD4680BD00BF01
:10118C0010E000E080B582B000AF78607868FFF7BF
:10119C0047FF00BF0837BD4680BD80B586B000AFA5
:1011AC000346B9607A60FB7300237B61FFF75CFF39
:1011BC0078617A68B9687869FFF78EFF024697F90B
:1011CC000F3011461846FFF75DFF00BF1837BD46BC
:1011DC0080BD80B582B000AF78607868FFF7B0FF53
:1011EC00034618460837BD4680BD000080B584B064
:1011FC0000AF78607B68002B01D101236CE07B6829
:10120C00D3F88430002B06D17B682322C3F88420CA
:10121C007868FFF76DFC0023BB60314B5B6C304A88
:10122C0043F4804353642E4B5B6C03F48043BB60EC
:10123C00BB682C4B5B682B4A23F400035360294B8F
:10124C005A687B689B68274913434B60254B5B6846
:10125C007B681B6803F580531B687A68126843F03F
:10126C00010302F580521360FFF7AAFEF86011E04B
:10127C00FFF7A6FE0246FB68D31AB3F5FA7F09D92D
:10128C007B680422C3F888207B68E022C3F88420A2
:10129C00012321E07B681B6803F580531B6803F076
:1012AC000103002BE4D1786800F058F9786800F05D
:1012BC00FFF9786800F055FA7B685B681A460021E4
:1012CC00786800F0BDF97B680022C3F888207B6841
:1012DC001022C3F88420002318461037BD4680BD69
:1012EC00003802400038014080B584B000AF78600F
:1012FC0039607B681B681B68FB60FA68514B1340B4
:10130C00FB603B681B7C002B02D14FF4000200E019
:10131C0000223B685B7C002B02D14FF4800300E081
:10132C0000231A433B689B681A433B68DB7F1B0412
:10133C001A433B685B6913433A68927F002A02D1D7
:10134C004FF4005200E000221A433B681B7F1B0342
:10135C001A433B689B691A433B681B799B021343F6
:10136C003A6892F82020002A02D14FF4007200E073
:10137C0000221A433B68DB7BDB011A433B685B6A48
:10138C001A433B6893F828301B011343FA68134344
:10139C00FB607B681B68FA681A607B681B681B68BB
:1013AC00FB600120FFF718FE7B681B68FA681A6067
:1013BC007B681B689B69FB60FA684FF641731340AE
:1013CC00FB603B689B6C1B043A6892F84C20002A2B
:1013DC0001D1802200E000221A433B681B6D1343AD
:1013EC003A6892F85520012A01D1082200E0002227
:1013FC0013433A6892F85620012A01D1042200E0E6
:10140C00002213433A6892F85420012A01D1022297
:10141C0000E000221343FA681343FB607B681B68EF
:10142C00FA689A617B681B689B69FB600120FFF777
:10143C00D3FD7B681B68FA689A6100BF1037BD4604
:10144C0080BD00BF0F8120FF80B584B000AF7860F5
:10145C0039607B681B6803F580539B69FB60FA68F5
:10146C003D4B1340FB603B681B7B002B02D14FF0C4
:10147C00806200E000223B685B7B5B0613433A68AA
:10148C00527F002A02D14FF4801200E000221A434E
:10149C003B689B7B5B051A433B685B691A433B6863
:1014AC001B7FDB011A433B689B7F9B011A433B6804
:1014BC001B6A1A433B6893F824309B001343FA6869
:1014CC001343FB607B681B6803F580531A46FB686B
:1014DC0093617B681B6803F580539B69FB6001205B
:1014EC00FFF77AFD7B681B6803F580531A46FB688F
:1014FC0093613B681B795A063B689B681A433B68AF
:10150C009B691A433B681B691A433B6893F8253067
:10151C00DB011A433B689B6A9B001A433B681B68C0
:10152C0013437A68126843F4000302F58052136087
:10153C007B681B6803F580531B68FB600120FFF779
:10154C004BFD7B681B6803F580531A46FB681360E0
:10155C0000BF1037BD4680BD233FDEF880B5A6B076
:10156C0000AF7860012387F84430012387F84530B9
:10157C000023FB63002387F85330012387F8523094
:10158C00002387F85030012387F83830002387F880
:10159C005430002387F843300023BB65002387F8C1
:1015AC005C300023FB67002387F880300023C7F8EA
:1015BC008430002387F88A30002387F888304FF472
:1015CC008043BB644FF40063FB64002387F88930CD
:1015DC0007F1340319467868FFF786FE01233B7543
:1015EC0001237B75012387F825300123BB7500236C
:1015FC00FB61002387F82430002387F82630002372
:10160C00BB62012387F82C3001233B734FF48033EA
:10161C003B614FF480033B624FF40053BB610123E9
:10162C0087F82D3000233B630023BB6007F10803D0
:10163C0019467868FFF708FF00BF9837BD4680BD94
:10164C0080B487B000AFF860B9607A607B6805330E
:10165C001B781B027A680432127813437B61BA68D8
:10166C00114B13441A467B6913607B6803331B7858
:10167C001A067B6802331B781B041A437B68013300
:10168C001B781B0213437A68127813437B61BA6888
:10169C00064B13441A467B69136000BF1C37BD46CA
:1016AC005DF8047B704700BF4080024044800240DC
:1016BC0080B485B000AF78600023FB603EE07B68AF
:1016CC00D968FA6813469B001344DB000B44BB60DB
:1016DC00BB6800221A60BB6800225A60BB680022FB
:1016EC009A60BB680022DA60B9687B68FA680632D7
:1016FC0043F82210BB681B6843F48012BB681A6065
:10170C00FB68022B0CD87B68D968FB685A1C134603
:10171C009B001344DB000B441A46BB68DA6004E000
:10172C007B68DB681A46BB68DA60BB681B6843F4ED
:10173C004002BB681A60FB680133FB60FB68032B3B
:10174C00BDD97B6800229A627B68DA687B681B686B
:10175C0003F580531A6100BF1437BD465DF8047B56
:10176C00704780B485B000AF78600023FB6046E022
:10177C007B681969FA6813469B001344DB000B4421
:10178C00BB60BB6800221A60BB6800225A60BB6851
:10179C0000229A60BB680022DA60BB6800221A62E1
:1017AC00BB6800225A62BB684FF000421A60BB68EB
:1017BC0044F2F4525A60BB685B6823F00042BB6889
:1017CC005A60B9687B68FA68123243F82210FB68D9
:1017DC00022B0CD87B681969FB685A1C13469B00BA
:1017EC001344DB000B441A46BB68DA6004E07B68E8
:1017FC001B691A46BB68DA60FB680133FB60FB6847
:10180C00032BB5D97B680022DA657B6800221A6647
:10181C007B6800229A667B680022DA667B6800226D
:10182C009A657B681A697B681B6803F58053DA60DC
:10183C0000BF1437BD465DF8047B704780B586B099
:10184C0000AFF860B960C7E900230123FB75234B97
:10185C001B7E012B01D102233BE0204B01221A7687
:10186C004CF2503000F070F80346FB75FB7D002BFA
:10187C002BD1FB68002B05D13B781946B86800F0DA
:10188C001BF916E0FB68012B05D13B881946B8689B
:10189C0000F0EEF80DE0FB68022B05D13B68194611
:1018AC00B86800F0C3F804E0D7E90023B86800F08A
:1018BC008BF84CF2503000F047F80346FB75084BA0
:1018CC001B69074A23F001031361044B00221A76AB
:1018DC00FB7D18461837BD4680BD00BFA00900200F
:1018EC00003C024080B483B000AF0023FB710B4B73
:1018FC001B69002B0BDA094B094A5A60074B094A42
:10190C005A60064B1B69002B01DA0123FB71FB7932
:10191C0018460C37BD465DF8047B7047003C02400E
:10192C0023016745AB89EFCD80B400AF054B1B6934
:10193C00044A43F00043136100231846BD465DF88A
:10194C00047B7047003C024080B584B000AF7860E7
:10195C000023FB601A4B0022DA61FFF731FBF860C1
:10196C0010E07B68B3F1FF3F0CD07B68002B07D0F5
:10197C00FFF726FB0246FB68D31A7A689A4201D21B
:10198C00032319E00F4BDB6803F48033002BE8D101
:10199C000C4BDB6803F00103002B02D0094B012236
:1019AC00DA60084BDB6803F4F973002B03D000F00A
:1019BC00A5F8012300E0002318461037BD4680BD72
:1019CC00A0090020003C024080B485B000AFF86054
:1019DC00C7E90023144B1B69134A23F440731361AA
:1019EC00114B1B69104A43F4407313610E4B1B6976
:1019FC000D4A43F001031361FB683A681A60BFF3A8
:101A0C006F8F00BFD7E900014FF000024FF00003C9
:101A1C000A000023F968043113460B6000BF143729
:101A2C00BD465DF8047B7047003C024080B483B037
:101A3C0000AF786039600D4B1B690C4A23F440737E
:101A4C0013610A4B1B69094A43F400731361074B7A
:101A5C001B69064A43F0010313617B683A681A60FC
:101A6C0000BF0C37BD465DF8047B7047003C02405C
:101A7C0080B483B000AF78600B467B800D4B1B6944
:101A8C000C4A23F4407313610A4B1B69094A43F453
:101A9C0080731361074B1B69064A43F00103136102
:101AAC007B687A881A8000BF0C37BD465DF8047BD2
:101ABC00704700BF003C024080B483B000AF786038
:101ACC000B46FB700C4B1B690B4A23F440731361E0
:101ADC00094B094A1B691361074B1B69064A43F002
:101AEC00010313617B68FA781A7000BF0C37BD468E
:101AFC005DF8047B704700BF003C024080B400AF2F
:101B0C002F4BDB6803F01003002B08D02D4BDB6947
:101B1C0043F010032B4AD361294B1022DA60284B77
:101B2C00DB6803F02003002B08D0264BDB6943F065
:101B3C000803244AD361224B2022DA60204BDB6855
:101B4C0003F04003002B08D01E4BDB6943F0040369
:101B5C001C4AD3611A4B4022DA60194BDB6803F044
:101B6C008003002B08D0174BDB6943F00203154AA6
:101B7C00D361134B8022DA60114BDB6803F4807362
:101B8C00002B09D00F4BDB6943F001030D4AD361E5
:101B9C000B4B4FF48072DA60094BDB6803F00203E5
:101BAC00002B08D0074BDB6943F02003054AD361B7
:101BBC00034B0222DA6000BFBD465DF8047B704720
:101BCC00003C0240A009002080B584B000AF7860D2
:101BDC0039600123FB730023BB60324B1B7E012B4E
:101BEC0001D102235AE02F4B01221A764CF25030CD
:101BFC00FFF7AAFE0346FB73FB7B002B4AD13B6825
:101C0C004FF0FF321A607B681B68012B17D17B6881
:101C1C001B69DAB27B685B681946104600F046F81F
:101C2C004CF25030FFF790FE0346FB731E4B1B69C2
:101C3C001D4A23F4004323F00403136128E07B685E
:101C4C009B68BB601CE07B681B69DBB21946B868FB
:101C5C0000F066F84CF25030FFF776FE0346FB734B
:101C6C00114B1B69104A23F0FA031361FB7B002B09
:101C7C0003D03B68BA681A600AE0BB680133BB60EA
:101C8C007B68DA687B689B681344BA689A42DAD33B
:101C9C0000F094F8034B00221A76FB7B18461037A1
:101CAC00BD4680BDA0090020003C024080B483B03A
:101CBC0000AF03463960FB71184B1B69174A23F4BC
:101CCC00407313613B68032B08D1144B1B69134AF7
:101CDC0043F4004343F0040313610FE03B68012B12
:101CEC0006D10E4B1B690D4A43F00403136105E04A
:101CFC000A4B1B69094A43F400431361074B1A69E9
:101D0C00FB791B021343054A43F48033136100BF74
:101D1C000C37BD465DF8047B704700BF003C0240A9
:101D2C0080B485B000AF78600B46FB700023FB607D
:101D3C00FB78002B02D10023FB6010E0FB78012B19
:101D4C0003D14FF48073FB6009E0FB78022B03D1C5
:101D5C004FF40073FB6002E04FF44073FB607B6850
:101D6C000B2B02D97B6804337B60134B1B69124A23
:101D7C0023F440731361104B1A690F49FB6813432A
:101D8C000B610D4B1B690C4A23F0F80313610A4BD2
:101D9C001A697B68DB001343074A43F002031361A3
:101DAC00054B1B69044A43F48033136100BF14379D
:101DBC00BD465DF8047B7047003C024080B400AF28
:101DCC00204B1B6803F40073002B17D01D4B1B68B2
:101DDC001C4A23F4007313601A4B1B68194A43F412
:101DEC0000631360174B1B68164A23F400631360DF
:101DFC00144B1B68134A43F400731360114B1B689C
:101E0C0003F48063002B17D00E4B1B680D4A23F490
:101E1C00806313600B4B1B680A4A43F480531360B6
:101E2C00084B1B68074A23F480531360054B1B684F
:101E3C00044A43F48063136000BFBD465DF8047B25
:101E4C00704700BF003C024080B489B000AF78609E
:101E5C00396000237B6100233B610023BB610023BD
:101E6C00FB6177E10122FB6902FA03F37B613B68BA
:101E7C001B687A6913403B613A697B699A4240F06E
:101E8C0066813B685B6803F00303012B05D03B685C
:101E9C005B6803F00303022B30D17B689B68BB614A
:101EAC00FB695B00032202FA03F3DB43BA691340BC
:101EBC00BB613B68DA68FB695B0002FA03F3BA6941
:101ECC001343BB617B68BA699A607B685B68BB61D2
:101EDC000122FB6902FA03F3DB43BA691340BB61CD
:101EEC003B685B681B0903F00102FB6902FA03F310
:101EFC00BA691343BB617B68BA695A603B685B681B
:101F0C0003F00303032B17D07B68DB68BB61FB6911
:101F1C005B00032202FA03F3DB43BA691340BB6193
:101F2C003B689A68FB695B0002FA03F3BA691343D6
:101F3C00BB617B68BA69DA603B685B6803F00303DA
:101F4C00022B23D1FB69DA087B68083253F8223064
:101F5C00BB61FB6903F007039B000F2202FA03F33A
:101F6C00DB43BA691340BB613B681A69FB6903F038
:101F7C0007039B0002FA03F3BA691343BB61FB69C5
:101F8C00DA087B680832B96943F822107B681B6851
:101F9C00BB61FB695B00032202FA03F3DB43BA6902
:101FAC001340BB613B685B6803F00302FB695B0099
:101FBC0002FA03F3BA691343BB617B68BA691A600E
:101FCC003B685B6803F44033002B00F0C0800023B7
:101FDC00FB60664B5B6C654A43F480435364634B14
:101FEC005B6C03F48043FB60FB68614AFB699B08F4
:101FFC00023352F82330BB61FB6903F003039B00EF
:10200C000F2202FA03F3DB43BA691340BB617B680E
:10201C00584A934237D07B68574A934231D07B68F9
:10202C00564A93422BD07B68554A934225D07B6805
:10203C00544A93421FD07B68534A934219D07B6811
:10204C00524A934213D07B68514A93420DD07B681D
:10205C00504A934207D07B684F4A934201D10923DF
:10206C0012E00A2310E008230EE007230CE00623FD
:10207C000AE0052308E0042306E0032304E002231E
:10208C0002E0012300E00023FA6902F0030292004F
:10209C009340BA691343BB613549FB699B08023312
:1020AC00BA6941F823203D4B9B68BB613B69DB431C
:1020BC00BA691340BB613B685B6803F48013002B67
:1020CC0003D0BA693B691343BB61344ABB69936063
:1020DC00324BDB68BB613B69DB43BA691340BB61C4
:1020EC003B685B6803F40013002B03D0BA693B69AF
:1020FC001343BB61294ABB69D360284B5B68BB6146
:10210C003B69DB43BA691340BB613B685B6803F412
:10211C000033002B03D0BA693B691343BB611F4AE0
:10212C00BB6953601D4B1B68BB613B69DB43BA69E0
:10213C001340BB613B685B6803F48033002B03D016
:10214C00BA693B691343BB61144ABB691360FB69F1
:10215C000133FB61FB690F2B7FF684AE00BF00BF20
:10216C002437BD465DF8047B704700BF0038024041
:10217C000038014000000240000402400008024008
:10218C00000C0240001002400014024000180240F3
:10219C00001C02400020024000240240003C014090
:1021AC0080B485B000AF78600B467B807B681A6981
:1021BC007B881340002B02D00123FB7301E000232A
:1021CC00FB73FB7B18461437BD465DF8047B7047E8
:1021DC0080B483B000AF78600B467B8013467B7075
:1021EC007B78002B03D07A887B689A6103E07B882C
:1021FC001A047B689A6100BF0C37BD465DF8047BFE
:10220C007047F0B58FB00AAF78607B68002B01D1B6
:10221C0001230FE17B681B68BB607B6893F8BD34BE
:10222C00DBB2002B06D17B68002283F8BC247868D3
:10223C00FEF76CFD7B68032283F8BD24BB68DB6B67
:10224C0003F48073002B02D17B6800221A617B6837
:10225C001B68184601F0B5FA7B681B683B607E680A
:10226C006D4606F110040FCC0FC50FCC0FC594E8CA
:10227C00030085E80300331D0ECB386801F040FAEB
:10228C000346002B05D07B68022283F8BD24012372
:10229C00D0E07B681B680021184601F0A3FA0023EC
:1022AC00FB734AE0FA7B79681346DB0013449B000E
:1022BC000B443D3301221A70FA7B79681346DB001C
:1022CC0013449B000B443C33FA7B1A70FA7BFB7B68
:1022DC0098B279681346DB0013449B000B444433DB
:1022EC0002461A80FA7B79681346DB0013449B0084
:1022FC000B44403300221A70FA7B79681346DB00DA
:10230C0013449B000B44483300221A60FA7B796813
:10231C001346DB0013449B000B444C3300221A6021
:10232C00FA7B79681346DB0013449B000B4454334F
:10233C0000221A60FB7B0133FB73FA7B7B685B68C2
:10234C009A42AFD30023FB7344E0FA7B79681346BF
:10235C00DB0013449B000B4403F27D2300221A7014
:10236C00FA7B79681346DB0013449B000B4403F59E
:10237C001F73FA7B1A70FA7B79681346DB001344DF
:10238C009B000B4403F5207300221A70FA7B7968CA
:10239C001346DB0013449B000B4403F5227300220D
:1023AC001A60FA7B79681346DB0013449B000B44DC
:1023BC0003F5237300221A60FA7B79681346DB005D
:1023CC0013449B000B4403F5257300221A60FB7B1E
:1023DC000133FB73FA7B7B685B689A42B5D37B68ED
:1023EC001B683B607E686D4606F110040FCC0FC570
:1023FC000FCC0FC594E8030085E80300331D0ECB0A
:10240C00386801F03BFA0346002B05D07B680222AA
:10241C0083F8BD2401230DE07B68002283F838206B
:10242C007B68012283F8BD247B681B68184601F089
:10243C0006FC002318461437BD46F0BD80B586B0A7
:10244C0000AF78607B68002B01D1012367E27B68C9
:10245C001B6803F00103002B75D0884B9B6803F0BD
:10246C000C03042B0CD0854B9B6803F00C03082B3E
:10247C0012D1824B5B6803F48003B3F5800F0BD150
:10248C007E4B1B6803F40033002B5BD07B685B68CE
:10249C00002B57D1012342E27B685B68B3F5803F88
:1024AC0006D1764B1B68754A43F4803313601DE0EC
:1024BC007B685B68B3F5A02F0CD1704B1B686F4A1F
:1024CC0043F4802313606D4B1B686C4A43F48033D8
:1024DC0013600BE0694B1B68684A23F4803313606C
:1024EC00664B1B68654A23F4802313607B685B682A
:1024FC00002B13D0FEF764FD386108E0FEF760FD99
:10250C0002463B69D31A642B01D9032307E25B4BC8
:10251C001B6803F40033002BF0D014E0FEF750FDE1
:10252C00386108E0FEF74CFD02463B69D31A642B78
:10253C0001D90323F3E1514B1B6803F40033002B47
:10254C00F0D100E000BF7B681B6803F00203002B96
:10255C0063D04A4B9B6803F00C03002B0BD0474B0A
:10256C009B6803F00C03082B1CD1444B5B6803F4F1
:10257C008003002B16D1414B1B6803F00203002B88
:10258C0005D07B68DB68012B01D00123C7E13B4BF5
:10259C001B6823F0F8027B681B69DB003749134387
:1025AC000B603AE07B68DB68002B20D0344B0122B7
:1025BC001A60FEF705FD386108E0FEF701FD0246E2
:1025CC003B69D31A022B01D90323A8E12B4B1B68BF
:1025DC0003F00203002BF0D0284B1B6823F0F80209
:1025EC007B681B69DB00254913430B6015E0244B0A
:1025FC0000221A60FEF7E4FC386108E0FEF7E0FC0C
:10260C0002463B69D31A022B01D9032387E11B4BEA
:10261C001B6803F00203002BF0D17B681B6803F0EE
:10262C000803002B36D07B685B69002B16D0154B4A
:10263C0001221A60FEF7C4FC386108E0FEF7C0FC0A
:10264C0002463B69D31A022B01D9032367E10B4BDA
:10265C005B6F03F00203002BF0D01BE0094B002250
:10266C001A60FEF7ADFC38610EE0FEF7A9FC0246DD
:10267C003B69D31A022B07D9032350E100380240DF
:10268C0000004742800E4742884B5B6F03F0020309
:10269C00002BEAD17B681B6803F00403002B00F0CD
:1026AC0097800023FB75814B1B6C03F08053002B30
:1026BC000FD10023BB607D4B1B6C7C4A43F08053D5
:1026CC0013647A4B1B6C03F08053BB60BB68012313
:1026DC00FB75774B1B6803F48073002B18D1744B7C
:1026EC001B68734A43F480731360FEF769FC38610E
:1026FC0008E0FEF765FC02463B69D31A022B01D9B0
:10270C0003230CE16A4B1B6803F48073002BF0D09D
:10271C007B689B68012B06D1644B1B6F634A43F0AB
:10272C00010313671CE07B689B68052B0CD15F4B86
:10273C001B6F5E4A43F0040313675C4B1B6F5B4AD1
:10274C0043F0010313670BE0584B1B6F574A23F000
:10275C0001031367554B1B6F544A23F00403136793
:10276C007B689B68002B15D0FEF72AFC38610AE0C9
:10277C00FEF726FC02463B69D31A41F2883293429B
:10278C0001D90323CBE0494B1B6F03F00203002B51
:10279C00EED014E0FEF714FC38610AE0FEF710FCF2
:1027AC0002463B69D31A41F28832934201D9032382
:1027BC00B5E03E4B1B6F03F00203002BEED1FB7D0B
:1027CC00012B05D1394B1B6C384A23F08053136411
:1027DC007B689B69002B00F0A180344B9B6803F055
:1027EC000C03082B5CD07B689B69022B41D1314BCD
:1027FC0000221A60FEF7E4FB386108E0FEF7E0FB0C
:10280C0002463B69D31A022B01D9032387E0274BDD
:10281C001B6803F00073002BF0D17B68DA697B68CE
:10282C001B6A1A437B685B6A9B011A437B689B6A31
:10283C005B08013B1B041A437B68DB6A1B061B49C4
:10284C0013434B601B4B01221A60FEF7B9FB386136
:10285C0008E0FEF7B5FB02463B69D31A022B01D9FF
:10286C0003235CE0114B1B6803F00073002BF0D0CA
:10287C0054E0104B00221A60FEF7A2FB386108E00E
:10288C00FEF79EFB02463B69D31A022B01D90323A8
:10289C0045E0064B1B6803F00073002BF0D13DE0C4
:1028AC007B689B69012B07D1012338E0003802407B
:1028BC0000700040600047421B4B5B68FB607B680C
:1028CC009B69012B28D0FB6803F480027B68DB69D1
:1028DC009A4221D1FB6803F03F027B681B6A9A4243
:1028EC001AD1FA6847F6C07313407A68526A92019B
:1028FC00934211D1FB6803F440327B689B6A5B08FE
:10290C00013B1B049A4207D1FB6803F070627B68A1
:10291C00DB6A1B069A4201D0012300E00023184613
:10292C001837BD4680BD00BF0038024080B584B06A
:10293C0000AF786039607B68002B01D10123CCE0BB
:10294C00684B1B6803F00F033A689A420CD9654B2D
:10295C003A68D2B21A70634B1B6803F00F033A68E3
:10296C009A4201D00123B8E07B681B6803F0020394
:10297C00002B20D07B681B6803F00403002B05D0D0
:10298C00594B9B68584A43F4E05393607B681B682F
:10299C0003F00803002B05D0534B9B68524A43F4B9
:1029AC0060439360504B9B6823F0F0027B689B68FC
:1029BC004D4913438B607B681B6803F00103002BAC
:1029CC0044D07B685B68012B07D1474B1B6803F431
:1029DC000033002B19D101237FE07B685B68022B4D
:1029EC0003D07B685B68032B07D13F4B1B6803F05C
:1029FC000073002B09D101236FE03B4B1B6803F0E4
:102A0C000203002B01D1012367E0374B9B6823F0B5
:102A1C0003027B685B68344913438B60FEF7D0FA82
:102A2C00F8600AE0FEF7CCFA0246FB68D31A41F2D2
:102A3C008832934201D903234FE02B4B9B6803F060
:102A4C000C027B685B689B009A42EBD1254B1B68A0
:102A5C0003F00F033A689A420CD2224B3A68D2B276
:102A6C001A70204B1B6803F00F033A689A4201D08E
:102A7C00012332E07B681B6803F00403002B08D0B1
:102A8C00194B9B6823F4E0527B68DB6816491343AF
:102A9C008B607B681B6803F00803002B09D0124B7A
:102AAC009B6823F460427B681B69DB000E4913436F
:102ABC008B6000F021F802460B4B9B681B0903F05E
:102ACC000F030A49CB5C22FA03F3094A1360094B42
:102ADC001B681846FEF730FA002318461037BD461F
:102AEC0080BD00BF003C024000380240803D000821
:102AFC0000000020040000202DE9B04F94B000AF7E
:102B0C0000237B640023FB6400233B640023BB6431
:102B1C00794B9B6803F00C03082B0DD0082B00F2AB
:102B2C00E180002B02D0042B03D0DBE0734BBB64A1
:102B3C00DBE0734BBB64D8E06F4B5B6803F03F0387
:102B4C007B646D4B5B6803F48003002B63D06A4B92
:102B5C005B689B090022BB63FA63BB6BC3F308037E
:102B6C003B6300237B63D7E90C4522462B464FF091
:102B7C0000004FF00001590141EAD26150010246B8
:102B8C000B462146511A3961294663EB01037B61DF
:102B9C004FF000024FF00003D7E904AB59468B010C
:102BAC00514643EA916351468A015146B2EB010802
:102BBC00594663EB01094FF000024FF000034FEA56
:102BCC00C90343EA58734FEAC80290469946234614
:102BDC0018EB0303BB602B4649EB0303FB604FF080
:102BEC0000024FF00003D7E9024529464B0221466B
:102BFC0043EAD15321464A02104619467B6C002207
:102C0C00BB62FA62D7E90A23FDF7EAFA02460B46E1
:102C1C001346FB6458E0384B5B689B09002218464E
:102C2C001146C0F308033B6200237B62D7E9088995
:102C3C0042464B464FF000004FF00001590141EA6B
:102C4C00D261500102460B464146B2EB010A49469D
:102C5C0063EB010B4FF000024FF000034FEA8B13B4
:102C6C0043EA9A634FEA8A12B2EB0A0463EB0B0550
:102C7C004FF000024FF00003EB0043EA5473E20004
:102C8C0014461D464346E3183B604B4645EB030395
:102C9C007B604FF000024FF00003D7E90045294656
:102CAC008B02214643EA915321468A02104619466B
:102CBC007B6C0022BB61FA61D7E90623FDF790FA21
:102CCC0002460B461346FB640B4B5B681B0C03F074
:102CDC00030301335B003B64FA6C3B6CB2FBF3F314
:102CEC00BB6402E0054BBB6400BFBB6C184650379D
:102CFC00BD46BDE8B08F00BF003802400024F40090
:102D0C0000127A0080B400AF034B1B681846BD4616
:102D1C005DF8047B704700BF0000002080B500AF59
:102D2C00FFF7F0FF0246054B9B689B0A03F0070375
:102D3C000349CB5C22FA03F3184680BD00380240ED
:102D4C00903D000880B500AFFFF7DCFF0246054B55
:102D5C009B685B0B03F007030349CB5C22FA03F37C
:102D6C00184680BD00380240903D000880B582B006
:102D7C0000AFFEF725F97860724B1B68714A43F07F
:102D8C000103136008E0FEF71BF902467B68D31AB7
:102D9C00022B01D90323D0E06A4B1B6803F002031A
:102DAC00002BF0D0674B1B68664A43F0800313601E
:102DBC00FEF706F97860634B00229A600AE0FEF792
:102DCC00FFF802467B68D31A41F28832934201D94C
:102DDC000323B2E05B4B9B6803F00C03002BEED19A
:102DEC00FEF7EEF87860574B1B68564A23F45023D5
:102DFC00136008E0FEF7E4F802467B68D31A642BF4
:102E0C0001D9032399E04F4B1B6803F40033002BCB
:102E1C00F0D1FEF7D5F878604A4B1B68494A23F08D
:102E2C008073136008E0FEF7CBF802467B68D31A78
:102E3C00022B01D9032380E0424B1B6803F0007383
:102E4C00002BF0D1FEF7BCF878603E4B1B683D4A76
:102E5C0023F08063136008E0FEF7B2F802467B684B
:102E6C00D31A022B01D9032367E0364B1B6803F0FE
:102E7C000063002BF0D1FEF7A3F87860314B1B6890
:102E8C00304A23F08053136008E0FEF799F80246AD
:102E9C007B68D31A022B01D903234EE0294B1B6804
:102EAC0003F00053002BF0D1264B274A5A60254BD8
:102EBC00264AC3F88420234B244AC3F88820214B8C
:102ECC00DB68204A23F4F853D3601E4BDB681D4AA1
:102EDC0023F40053D3601B4BDB681A4A23F4804362
:102EEC00D360184BDB68174A43F41F03D360154BB0
:102EFC00DB68144A43F40013D360124BDB68114AAD
:102F0C0043F48003D3600F4B5B6F0E4A23F0010335
:102F1C0053670C4B5B6F0B4A43F0807353670C4B3E
:102F2C000C4A1A600C4B1B681846FEF705F8034652
:102F3C00002B01D0012300E0002318460837BD46C2
:102F4C0080BD00BF00380240103000040030002467
:102F5C00000000200024F4000400002080B582B0A2
:102F6C0000AF78607B68002B01D101233FE07B68C8
:102F7C0093F83D30DBB2002B06D17B68002283F83E
:102F8C003C207868FDF77AFE7B68242283F83D208C
:102F9C007B681B68DA687B681B6822F40052DA6075
:102FAC00786800F039F97B681B681A697B681B68C4
:102FBC0022F490421A617B681B685A697B681B6813
:102FCC0022F02A025A617B681B68DA687B681B68EE
:102FDC0042F40052DA607B6800221A647B6820227B
:102FEC0083F83D207B68202283F83E20002318467E
:102FFC000837BD4680BD80B58AB002AFF860B960B5
:10300C003B601346FB8000237B61FB6893F83E30EA
:10301C00DBB2202B40F08C80BB68002B02D0FB88ED
:10302C00002B01D1012384E0FB6893F83C30012B89
:10303C0001D102237DE0FB68012283F83C20FB6870
:10304C0000221A64FB68222283F83E20FB680022CF
:10305C001A63FDF7B5FF7861FB68FA889A85FB68FF
:10306C00FA88DA85FB689B68B3F5805F08D1FB684A
:10307C001B69002B04D10023FB61BB68BB6103E01F
:10308C00BB68FB610023BB61FB68002283F83C201A
:10309C0043E03B6800937B6900222021F86800F034
:1030AC004CF80346002B01D0032342E0FB69002BB4
:1030BC000CD1FB681B685B689BB2C3F308039AB224
:1030CC00BB691A80BB690233BB611FE0FB689B685C
:1030DC00B3F5805F07D0FB689B68002B0AD1FB68B7
:1030EC001B69002B06D1FB681B685B68DAB2FB69B5
:1030FC001A7008E0FB681B685B68DBB203F07F03A7
:10310C00DAB2FB691A70FB690133FB61FB68DB8D7A
:10311C009BB2013B9AB2FB68DA85FB68DB8D9BB2F4
:10312C00002BB6D1FB68202283F83E20002300E060
:10313C00022318462037BD4680BD80B590B000AF45
:10314C00F860B9603B601346FB7150E0BB6CB3F1A7
:10315C00FF3F4CD0BB6C002B07D0FDF731FF024674
:10316C003B68D31ABA6C9A4241D2FB681B680C3389
:10317C00BB62BB6A53E8003F7B627B6A23F4D0736B
:10318C00FB63FB681B680C33FA6B7A633B63396B2C
:10319C007A6B41E80023FB62FB6A002BE5D1FB68EC
:1031AC001B6814337B617B6953E8003F3B613B69CF
:1031BC0023F00103BB63FB681B681433BA6B3A62E0
:1031CC00FB61F9693A6A41E80023BB61BB69002BDA
:1031DC00E5D1FB68202283F83D20FB68202283F890
:1031EC003E20FB68002283F83C2003230FE0FB68A1
:1031FC001B681A68BB681340BA689A420CBF01235B
:10320C000023DBB21A46FB799A429FD00023184662
:10321C004037BD4680BD00002DE9B04FC0B000AFB7
:10322C00C7F8F400D7F8F4301B681B6923F440503E
:10323C00D7F8F430D968D7F8F4301A6840EA0103AB
:10324C001361D7F8F4309A68D7F8F4301B691A4335
:10325C00D7F8F4305B691A43D7F8F430DB691343C1
:10326C00C7F8F830D7F8F4301B68DB6823F4164144
:10327C0021F00C01D7F8F4301A68D7F8F8300B436A
:10328C00D360D7F8F4301B685B6923F44070D7F82F
:10329C00F4309969D7F8F4301A6840EA01035361A5
:1032AC00D7F8F4301A688F4B9A4205D0D7F8F4301F
:1032BC001A688D4B9A4204D1FFF744FDC7F8FC0005
:1032CC0003E0FFF72BFDC7F8FC00D7F8F430DB69FF
:1032DC00B3F5004F40F00C81D7F8FC300022C7F852
:1032EC00E830C7F8EC20D7E93A4522462B4691182E
:1032FC00B9655B41FB65D7E91623214612EB010842
:10330C00294643EB01094FF000024FF000034FEA4E
:10331C00C90343EA58734FEAC802904699462346BC
:10332C0018EB0303C7F8E0302B4649EB0303C7F84F
:10333C00E430D7F8F4305B680022C7F8D830C7F80F
:10334C00DC20D7E936120B46DB183B65134642EB03
:10335C0003037B65D7E91423D7E93801FCF740FF59
:10336C0002460B46614BA3FB02235B091C01D7F8F9
:10337C00FC300022C7F8D030C7F8D420D7E9348904
:10338C0042464B469118B9645B41FB64D7E9122362
:10339C00414612EB010A494643EB010B4FF0000288
:1033AC004FF000034FEACB0343EA5A734FEACA02C9
:1033BC0092469B4643461AEB0303C7F8C8304B466C
:1033CC004BEB0303C7F8CC30D7F8F4305B68002222
:1033DC00C7F8C030C7F8C420D7E930120B46DB1849
:1033EC003B64134642EB03037B64D7E91023D7E914
:1033FC003201FCF7F5FE02460B4611463B4BA3FB94
:10340C0001235B09642202FB03F3CB1ADB0003F1FB
:10341C003202364BA3FB02235B095B0003F4F87307
:10342C001C44D7F8FC300022C7F8B830C7F8BC20D1
:10343C00D7E92E8942464B469118B9635B41FB6331
:10344C00D7E90E2341465118396349464B417B63FA
:10345C004FF000024FF00003D7E90CAB5946CB00FC
:10346C00514643EA51735146CA0010461946034669
:10347C0042469B18C7F8B0304B460A4642EB030352
:10348C00C7F8B430D7F8F4305B680022C7F8A8301E
:10349C00C7F8AC20D7E92A120B46DB18BB621346DF
:1034AC0042EB0303FB62D7E90A23D7E92C01FCF7B3
:1034BC0097FE02460B460D4BA3FB02135B096421DE
:1034CC0001FB03F3D31ADB003233084AA2FB0323BC
:1034DC005B0903F00702D7F8F4301B6822449A60AA
:1034EC0005E100BF00100140001401401F85EB51A5
:1034FC00D7F8FC300022C7F8A030C7F8A420D7E9D1
:10350C00288942464B46911839625B417B62D7E968
:10351C00082341465418494643EB01054FF000027D
:10352C004FF00003EB0043EA5473E20014461D46CF
:10353C004346E318C7F898304B4645EB0303C7F8EE
:10354C009C30D7F8F4305B680022C7F89030C7F88D
:10355C0094204FF000024FF00003D7E92445294690
:10356C008B00214643EA917321468A00D7E9260154
:10357C00FCF736FE02460B46604BA3FB02235B09AD
:10358C001C01D7F8FC300022C7F88830C7F88C2013
:10359C00D7E9228942464B469118B9615B41FB61E0
:1035AC00D7E9062341465118396149464B417B61A5
:1035BC004FF000024FF00003D7E904AB5946CB00A3
:1035CC00514643EA51735146CA0010461946034608
:1035DC0042469B18C7F880304B460A4642EB030321
:1035EC00C7F88430D7F8F4305B680022BB67FA6701
:1035FC004FF000024FF00003D7E91E8949468B00BB
:10360C00414643EA917341468A00D7E92001FCF711
:10361C00E7FD02460B46394BA3FB02135B09642101
:10362C0001FB03F3D31A1B013233344AA2FB0323ED
:10363C005B0903F0F0031C44D7F8FC3000223B6715
:10364C007A67D7E91C8942464B469118B9605B41B1
:10365C00FB60D7E9022341465118396049464B417A
:10366C007B604FF000024FF00003D7E900AB5946E6
:10367C00CB00514643EA51735146CA0010461946D5
:10368C00034642469B18BB664B460A4642EB030375
:10369C00FB66D7F8F4305B6800223B667A664FF025
:1036AC0000024FF00003D7E9188949468B004146C8
:1036BC0043EA917341468A00D7E91A01FCF790FD61
:1036CC0002460B460D4BA3FB02135B09642101FB65
:1036DC0003F3D31A1B013233084AA2FB03235B0901
:1036EC0003F00F02D7F8F4301B6822449A6000BF35
:1036FC0007F58077BD46BDE8B08F00BF1F85EB5145
:10370C0084B080B584B000AF786007F11C0080E80D
:10371C000E003B6B012B22D17B689B6B23F4803218
:10372C007B689A637B68DB6823F4840323F0400393
:10373C007A68D3607B68DB6823F440127B68DA60BC
:10374C00FB6C012B05D17B68DB6843F480127B6832
:10375C00DA60786800F0A2FA0346FB731AE07B6823
:10376C00DB6843F040027B68DA60786800F096FA18
:10377C000346FB733B6C002B06D17B689B6B43F4BD
:10378C0080327B689A6305E07B689B6B23F4803204
:10379C007B689A63BB6A012B0BD17B689B6843F0F7
:1037AC0006027B689A607B689B6843F020027B680A
:1037BC009A60FB7B18461037BD46BDE8804004B0CC
:1037CC00704780B483B000AF78607B689B6823F04F
:1037DC0001027B689A60002318460C37BD465DF8E1
:1037EC00047B704780B584B000AF78600B46FB70EB
:1037FC000023FB607B68DB6823F0C0427B68DA60E7
:10380C00FB78012B15D17B68DB6843F000527B6899
:10381C00DA600120FDF7E0FBFB680133FB607868A0
:10382C0000F02EFA0346012B1ED0FB68312BF0D989
:10383C001AE0FB78002B15D17B68DB6843F08042E3
:10384C007B68DA600120FDF7C7FBFB680133FB6086
:10385C00786800F015FA0346002B05D0FB68312B75
:10386C00F0D901E0012305E0FB68322B01D10123E3
:10387C0000E0002318461037BD4680BD84B080B5EB
:10388C0086B000AF786007F1240080E80E000023BA
:10389C00FB757B68FB6000233B6109E07A683B6940
:1038AC0040339B00134400225A603B6901333B6157
:1038BC003B690E2BF2D9FB6C002B1CD1FB6803F57A
:1038CC0000635B68FA6802F5006243F00203536020
:1038DC007B689B6B43F400127B689A637B689B6BE1
:1038EC0023F400227B689A637B689B6B23F4802211
:1038FC007B689A630BE07B689B6B23F400127B68FC
:10390C009A637B689B6B43F400227B689A63FB6829
:10391C0003F560631A4600231360FB6803F500632C
:10392C001946FB6803F500631A460B681360BB6B02
:10393C00012B0CD1FB6A002B04D10021786800F01C
:10394C0065F908E00121786800F060F903E00321D3
:10395C00786800F05BF91021786800F0F3F8034602
:10396C00002B01D00123FB75786800F01FF903468A
:10397C00002B01D00123FB75FB6803F500631A468D
:10398C0000231361FB6803F500631A46002353619F
:10399C00FB6803F500631A460023D36100233B61E7
:1039AC0043E03B695A01FB68134403F510631B6841
:1039BC0003F00043B3F1004F18D13B69002B0AD13F
:1039CC003B695A01FB68134403F510631A464FF028
:1039DC000063136013E03B695A01FB68134403F561
:1039EC0010631A464FF09043136008E03B695A018C
:1039FC00FB68134403F510631A46002313603B69FC
:103A0C005A01FB68134403F510631A460023136133
:103A1C003B695A01FB68134403F510631A464FF6D1
:103A2C007F3393603B6901333B617B6A3A699A420D
:103A3C00B7D300233B6143E03B695A01FB68134455
:103A4C0003F530631B6803F00043B3F1004F18D14A
:103A5C003B69002B0AD13B695A01FB68134403F5FF
:103A6C0030631A464FF00063136013E03B695A0150
:103A7C00FB68134403F530631A464FF09043136010
:103A8C0008E03B695A01FB68134403F530631A469E
:103A9C00002313603B695A01FB68134403F5306340
:103AAC001A46002313613B695A01FB68134403F562
:103ABC0030631A464FF67F3393603B6901333B61A9
:103ACC007B6A3A699A42B7D3FB6803F500631B69BA
:103ADC00FA6802F5006223F4807313617B6800229C
:103AEC009A617B686FF080425A613B6B002B05D169
:103AFC007B689B6943F010027B689A617B689A69CA
:103B0C000F4B13437A689361FB6B002B05D07B68DA
:103B1C009B6943F008027B689A61FB6C012B07D10F
:103B2C007B689B6943F0804343F004037A6893619C
:103B3C00FB7D18461837BD46BDE8804004B0704781
:103B4C0000383C8080B485B000AF786039600023C9
:103B5C00FB60FB680133FB60FB68134A934201D99D
:103B6C0003231BE07B681B69002BF2DA0023FB604C
:103B7C003B689B0143F020027B681A61FB680133B0
:103B8C00FB60FB68084A934201D9032306E07B687B
:103B9C001B6903F02003202BF0D0002318461437A8
:103BAC00BD465DF8047B7047400D030080B485B0C2
:103BBC0000AF78600023FB60FB680133FB60FB689F
:103BCC00114A934201D9032318E07B681B69002B2F
:103BDC00F2DA0023FB607B6810221A61FB68013368
:103BEC00FB60FB68084A934201D9032306E07B681B
:103BFC001B6903F01003102BF0D000231846143768
:103C0C00BD465DF8047B7047400D030080B485B061
:103C1C0000AF78600B46FB707B68FB60FB6803F5BC
:103C2C0000631A68FB78F96801F5006113430B60B7
:103C3C00002318461437BD465DF8047B704780B4EA
:103C4C0085B000AF78607B68FB60FB6803F5606350
:103C5C001B68FA6802F5606223F003031360FB68CB
:103C6C0003F500635B68FA6802F5006243F0020337
:103C7C005360002318461437BD465DF8047B70472B
:103C8C0080B483B000AF78607B685B6903F001039C
:103C9C0018460C37BD465DF8047B704780B485B080
:103CAC0000AF78600023FB60FB680133FB60FB68AE
:103CBC00134A934201D903231BE07B681B69002B39
:103CCC00F2DA0023FB607B681B6943F001027B681E
:103CDC001A61FB680133FB60FB68094A934201D906
:103CEC00032306E07B681B6903F00103012BF0D072
:103CFC00002318461437BD465DF8047B704700BF9F
:103D0C00400D030070B50D4D0D4C641BA410002626
:103D1C00A64209D10B4D0C4C00F020F8641BA410EA
:103D2C000026A64205D170BD55F8043B98470136D4
:103D3C00EEE755F8043B98470136F2E7A03D000842
:103D4C00A03D0008A03D0008A43D00080244034625
:103D5C00934200D1704703F8011BF9E7F8B500BF97
:103D6C00F8BC08BC9E467047F8B500BFF8BC08BC50
:043D7C009E467047A8
:103D8000000000000000000001020304060708090B
:083D9000000000000102030421
:083D980084C4FF7F010000005C
:043DA000D101000845
:043DA400AD01000865
:0C3DA8000024F4001000000001000000E6
:0400000508000E459C
:00000001FF
